{
  "abi": [
    {
      "inputs": [
        {
          "internalType": "contract IWorldID",
          "name": "_worldId",
          "type": "address"
        },
        {
          "internalType": "string",
          "name": "_appId",
          "type": "string"
        },
        {
          "internalType": "string",
          "name": "_actionId",
          "type": "string"
        },
        {
          "internalType": "address",
          "name": "_usdc",
          "type": "address"
        }
      ],
      "stateMutability": "nonpayable",
      "type": "constructor"
    },
    {
      "inputs": [],
      "name": "AllTranchesAlreadyClaimed",
      "type": "error"
    },
    {
      "inputs": [],
      "name": "InelgibleForReliefFund",
      "type": "error"
    },
    {
      "inputs": [],
      "name": "InvalidNullifier",
      "type": "error"
    },
    {
      "inputs": [],
      "name": "NotEnrolled",
      "type": "error"
    },
    {
      "inputs": [],
      "name": "ReliefFundAlreadyPaused",
      "type": "error"
    },
    {
      "inputs": [],
      "name": "ReliefFundAlreadyStopped",
      "type": "error"
    },
    {
      "inputs": [],
      "name": "TransferFailed",
      "type": "error"
    },
    {
      "inputs": [],
      "name": "UnauthorizedReliefFundAccess",
      "type": "error"
    },
    {
      "anonymous": false,
      "inputs": [
        {
          "indexed": false,
          "internalType": "address",
          "name": "enrollee",
          "type": "address"
        }
      ],
      "name": "NewEnrollment",
      "type": "event"
    },
    {
      "anonymous": false,
      "inputs": [
        {
          "indexed": false,
          "internalType": "bytes32",
          "name": "kekId",
          "type": "bytes32"
        }
      ],
      "name": "NewReliefFund",
      "type": "event"
    },
    {
      "anonymous": false,
      "inputs": [
        {
          "indexed": false,
          "internalType": "bytes32",
          "name": "kekId",
          "type": "bytes32"
        },
        {
          "indexed": false,
          "internalType": "uint256",
          "name": "trancheIndex",
          "type": "uint256"
        }
      ],
      "name": "NextTrancheStarted",
      "type": "event"
    },
    {
      "anonymous": false,
      "inputs": [
        {
          "indexed": false,
          "internalType": "bytes32",
          "name": "kekId",
          "type": "bytes32"
        }
      ],
      "name": "ReliefFundPaused",
      "type": "event"
    },
    {
      "anonymous": false,
      "inputs": [
        {
          "indexed": false,
          "internalType": "bytes32",
          "name": "kekId",
          "type": "bytes32"
        }
      ],
      "name": "ReliefFundResumed",
      "type": "event"
    },
    {
      "anonymous": false,
      "inputs": [
        {
          "indexed": false,
          "internalType": "bytes32",
          "name": "kekId",
          "type": "bytes32"
        }
      ],
      "name": "ReliefFundStopped",
      "type": "event"
    },
    {
      "anonymous": false,
      "inputs": [
        {
          "indexed": false,
          "internalType": "bytes32",
          "name": "kekId",
          "type": "bytes32"
        },
        {
          "indexed": false,
          "internalType": "uint256",
          "name": "trancheIndex",
          "type": "uint256"
        },
        {
          "indexed": false,
          "internalType": "address",
          "name": "claimer",
          "type": "address"
        }
      ],
      "name": "TrancheClaimed",
      "type": "event"
    },
    {
      "inputs": [
        {
          "internalType": "uint256",
          "name": "",
          "type": "uint256"
        }
      ],
      "name": "allReliefFunds",
      "outputs": [
        {
          "internalType": "bytes32",
          "name": "",
          "type": "bytes32"
        }
      ],
      "stateMutability": "view",
      "type": "function"
    },
    {
      "inputs": [
        {
          "internalType": "bytes32",
          "name": "kekId",
          "type": "bytes32"
        }
      ],
      "name": "claimTranche",
      "outputs": [],
      "stateMutability": "nonpayable",
      "type": "function"
    },
    {
      "inputs": [
        {
          "internalType": "string",
          "name": "alpha2country",
          "type": "string"
        },
        {
          "internalType": "uint256",
          "name": "trancheAmount",
          "type": "uint256"
        },
        {
          "internalType": "uint256",
          "name": "fee",
          "type": "uint256"
        }
      ],
      "name": "createReliefFund",
      "outputs": [],
      "stateMutability": "nonpayable",
      "type": "function"
    },
    {
      "inputs": [
        {
          "internalType": "bytes32",
          "name": "kekId",
          "type": "bytes32"
        },
        {
          "internalType": "uint256",
          "name": "amount",
          "type": "uint256"
        }
      ],
      "name": "donateToReliefFund",
      "outputs": [],
      "stateMutability": "nonpayable",
      "type": "function"
    },
    {
      "inputs": [
        {
          "internalType": "address",
          "name": "",
          "type": "address"
        }
      ],
      "name": "enrollmentMap",
      "outputs": [
        {
          "internalType": "address",
          "name": "wallet",
          "type": "address"
        },
        {
          "internalType": "string",
          "name": "alpha2country",
          "type": "string"
        },
        {
          "internalType": "bool",
          "name": "isOrbVerified",
          "type": "bool"
        },
        {
          "internalType": "bool",
          "name": "isPhoneVerified",
          "type": "bool"
        },
        {
          "internalType": "uint256",
          "name": "createdAt",
          "type": "uint256"
        }
      ],
      "stateMutability": "view",
      "type": "function"
    },
    {
      "inputs": [],
      "name": "getAllReliefFunds",
      "outputs": [
        {
          "components": [
            {
              "internalType": "bytes32",
              "name": "kekId",
              "type": "bytes32"
            },
            {
              "internalType": "address",
              "name": "organizer",
              "type": "address"
            },
            {
              "internalType": "string",
              "name": "alpha2country",
              "type": "string"
            },
            {
              "internalType": "uint256",
              "name": "trancheAmount",
              "type": "uint256"
            },
            {
              "internalType": "bool",
              "name": "isPaused",
              "type": "bool"
            },
            {
              "internalType": "bool",
              "name": "isStopped",
              "type": "bool"
            },
            {
              "internalType": "uint256",
              "name": "fee",
              "type": "uint256"
            },
            {
              "internalType": "uint256",
              "name": "numTranchesReleased",
              "type": "uint256"
            },
            {
              "internalType": "uint256",
              "name": "createdAt",
              "type": "uint256"
            }
          ],
          "internalType": "struct ParaController.ReliefFund[]",
          "name": "",
          "type": "tuple[]"
        }
      ],
      "stateMutability": "view",
      "type": "function"
    },
    {
      "inputs": [
        {
          "internalType": "address",
          "name": "organizer",
          "type": "address"
        }
      ],
      "name": "getReliefFunds",
      "outputs": [
        {
          "components": [
            {
              "internalType": "bytes32",
              "name": "kekId",
              "type": "bytes32"
            },
            {
              "internalType": "address",
              "name": "organizer",
              "type": "address"
            },
            {
              "internalType": "string",
              "name": "alpha2country",
              "type": "string"
            },
            {
              "internalType": "uint256",
              "name": "trancheAmount",
              "type": "uint256"
            },
            {
              "internalType": "bool",
              "name": "isPaused",
              "type": "bool"
            },
            {
              "internalType": "bool",
              "name": "isStopped",
              "type": "bool"
            },
            {
              "internalType": "uint256",
              "name": "fee",
              "type": "uint256"
            },
            {
              "internalType": "uint256",
              "name": "numTranchesReleased",
              "type": "uint256"
            },
            {
              "internalType": "uint256",
              "name": "createdAt",
              "type": "uint256"
            }
          ],
          "internalType": "struct ParaController.ReliefFund[]",
          "name": "",
          "type": "tuple[]"
        }
      ],
      "stateMutability": "view",
      "type": "function"
    },
    {
      "inputs": [
        {
          "internalType": "bytes32",
          "name": "kekId",
          "type": "bytes32"
        }
      ],
      "name": "pauseReliefFund",
      "outputs": [],
      "stateMutability": "nonpayable",
      "type": "function"
    },
    {
      "inputs": [
        {
          "internalType": "bytes32",
          "name": "",
          "type": "bytes32"
        }
      ],
      "name": "reliefFundMap",
      "outputs": [
        {
          "internalType": "bytes32",
          "name": "kekId",
          "type": "bytes32"
        },
        {
          "internalType": "address",
          "name": "organizer",
          "type": "address"
        },
        {
          "internalType": "string",
          "name": "alpha2country",
          "type": "string"
        },
        {
          "internalType": "uint256",
          "name": "trancheAmount",
          "type": "uint256"
        },
        {
          "internalType": "bool",
          "name": "isPaused",
          "type": "bool"
        },
        {
          "internalType": "bool",
          "name": "isStopped",
          "type": "bool"
        },
        {
          "internalType": "uint256",
          "name": "fee",
          "type": "uint256"
        },
        {
          "internalType": "uint256",
          "name": "numTranchesReleased",
          "type": "uint256"
        },
        {
          "internalType": "uint256",
          "name": "createdAt",
          "type": "uint256"
        }
      ],
      "stateMutability": "view",
      "type": "function"
    },
    {
      "inputs": [
        {
          "internalType": "bytes32",
          "name": "kekId",
          "type": "bytes32"
        }
      ],
      "name": "resumeeliefFund",
      "outputs": [],
      "stateMutability": "nonpayable",
      "type": "function"
    },
    {
      "inputs": [
        {
          "internalType": "bytes32",
          "name": "kekId",
          "type": "bytes32"
        }
      ],
      "name": "startNextTranche",
      "outputs": [],
      "stateMutability": "nonpayable",
      "type": "function"
    },
    {
      "inputs": [
        {
          "internalType": "bytes32",
          "name": "kekId",
          "type": "bytes32"
        }
      ],
      "name": "stopReliefFund",
      "outputs": [],
      "stateMutability": "nonpayable",
      "type": "function"
    },
    {
      "inputs": [],
      "name": "usdc",
      "outputs": [
        {
          "internalType": "contract ERC20",
          "name": "",
          "type": "address"
        }
      ],
      "stateMutability": "view",
      "type": "function"
    },
    {
      "inputs": [
        {
          "internalType": "address",
          "name": "signal",
          "type": "address"
        },
        {
          "internalType": "uint256",
          "name": "root",
          "type": "uint256"
        },
        {
          "internalType": "uint256",
          "name": "nullifierHash",
          "type": "uint256"
        },
        {
          "internalType": "uint256[8]",
          "name": "proof",
          "type": "uint256[8]"
        }
      ],
      "name": "verifyAndEnroll",
      "outputs": [],
      "stateMutability": "nonpayable",
      "type": "function"
    }
  ],
  "bytecode": {
    "object": "0x60e0604052600160c0523480156200001657600080fd5b5060405162001a1c38038062001a1c8339810160408190526200003991620001d7565b6001600160a01b0384166080526040516200008d906200007990620000639086906020016200026b565b60408051601f19818403018152919052620000ba565b836040516020016200006392919062000289565b60a052600680546001600160a01b0319166001600160a01b039290921691909117905550620002b1915050565b6000600882604051602001620000d191906200026b565b60408051601f198184030181529190528051602090910120901c92915050565b6001600160a01b03811681146200010757600080fd5b50565b634e487b7160e01b600052604160045260246000fd5b60005b838110156200013d57818101518382015260200162000123565b50506000910152565b600082601f8301126200015857600080fd5b81516001600160401b03808211156200017557620001756200010a565b604051601f8301601f19908116603f01168101908282118183101715620001a057620001a06200010a565b81604052838152866020858801011115620001ba57600080fd5b620001cd84602083016020890162000120565b9695505050505050565b60008060008060808587031215620001ee57600080fd5b8451620001fb81620000f1565b60208601519094506001600160401b03808211156200021957600080fd5b620002278883890162000146565b945060408701519150808211156200023e57600080fd5b506200024d8782880162000146565b92505060608501516200026081620000f1565b939692955090935050565b600082516200027f81846020870162000120565b9190910192915050565b82815260008251620002a381602085016020870162000120565b919091016020019392505050565b60805160a05160c05161173b620002e16000396000610f5a01526000610fbc01526000610f2a015261173b6000f3fe608060405234801561001057600080fd5b50600436106100ea5760003560e01c806358e0492d1161008c578063b28e407b11610066578063b28e407b14610206578063d1a04f2f14610219578063d7eb53da1461022c578063dbfc238c1461023f57600080fd5b806358e0492d146101bf57806389d381db146101d2578063a1a3f51b146101f357600080fd5b806333a36efb116100c857806333a36efb146101595780633b24ddd21461016c5780633e413bee146101815780634ecf7fe7146101ac57600080fd5b806317dcac27146100ef578063199efa5f146101205780631cebb25914610135575b600080fd5b6101026100fd366004611103565b610252565b6040516101179998979695949392919061116c565b60405180910390f35b61013361012e366004611103565b610336565b005b6101486101433660046111e8565b6103c8565b60405161011795949392919061120a565b610133610167366004611103565b610491565b610174610521565b604051610117919061124b565b600654610194906001600160a01b031681565b6040516001600160a01b039091168152602001610117565b6101336101ba366004611323565b6106ee565b6101336101cd366004611103565b610818565b6101e56101e0366004611103565b610a58565b604051908152602001610117565b610133610201366004611103565b610a79565b610133610214366004611103565b610b06565b6101746102273660046111e8565b610b9d565b61013361023a366004611345565b610dad565b61013361024d3660046113c4565b610f28565b600260208190526000918252604090912080546001820154928201805491936001600160a01b0316929161028590611412565b80601f01602080910402602001604051908101604052809291908181526020018280546102b190611412565b80156102fe5780601f106102d3576101008083540402835291602001916102fe565b820191906000526020600020905b8154815290600101906020018083116102e157829003601f168201915b50505060038401546004850154600586015460068701546007909701549596929560ff80841696506101009093049092169350919089565b6000818152600260205260409020600101546001600160a01b031633146103705760405163172c86c160e21b815260040160405180910390fd5b600081815260026020526040902060040154610100900460ff16156103a857604051631e89512f60e21b815260040160405180910390fd5b6000908152600260205260409020600401805461ff001916610100179055565b6001602081905260009182526040909120805491810180546001600160a01b03909316926103f590611412565b80601f016020809104026020016040519081016040528092919081815260200182805461042190611412565b801561046e5780601f106104435761010080835404028352916020019161046e565b820191906000526020600020905b81548152906001019060200180831161045157829003601f168201915b505050506002830154600390930154919260ff8082169361010090920416915085565b6000818152600260205260409020600101546001600160a01b031633146104cb5760405163172c86c160e21b815260040160405180910390fd5b600081815260026020526040902060040154610100900460ff161561050357604051631e89512f60e21b815260040160405180910390fd5b6000908152600260205260409020600401805460ff19166001179055565b60055460609060008167ffffffffffffffff8111156105425761054261144c565b60405190808252806020026020018201604052801561057b57816020015b6105686110a7565b8152602001906001900390816105605790505b50905060005b6005548110156106e75760026000600583815481106105a2576105a2611462565b6000918252602080832090910154835282810193909352604091820190208151610120810183528154815260018201546001600160a01b03169381019390935260028101805491928401916105f690611412565b80601f016020809104026020016040519081016040528092919081815260200182805461062290611412565b801561066f5780601f106106445761010080835404028352916020019161066f565b820191906000526020600020905b81548152906001019060200180831161065257829003601f168201915b505050918352505060038201546020820152600482015460ff80821615156040840152610100909104161515606082015260058201546080820152600682015460a082015260079091015460c09091015282518390839081106106d4576106d4611462565b6020908102919091010152600101610581565b5092915050565b600082815260026020526040902060040154610100900460ff161561072657604051631e89512f60e21b815260040160405180910390fd5b60008281526002602052604090206004015460ff16156107595760405163fa824cb760e01b815260040160405180910390fd5b6000828152600760205260408120805483929061077790849061148e565b90915550506006546040516323b872dd60e01b8152336004820152306024820152604481018390526001600160a01b03909116906323b872dd906064016020604051808303816000875af11580156107d3573d6000803e3d6000fd5b505050506040513d601f19601f820116820180604052508101906107f791906114a7565b610814576040516312171d8360e31b815260040160405180910390fd5b5050565b600081815260026020526040902060040154610100900460ff161561085057604051631e89512f60e21b815260040160405180910390fd5b336000908152600160205260409020546001600160a01b0316610886576040516364a85fc960e11b815260040160405180910390fd5b600260008281526020019081526020016000206002016040516020016108ac91906114c9565b60408051601f198184030181528282528051602091820120336000908152600180845293902090936108e3939190910191016114c9565b604051602081830303815290604052805190602001201461091757604051630c51341f60e11b815260040160405180910390fd5b60008181526002602090815260408083206006015460048352818420338552909252909120541061095b57604051632eb7669960e01b815260040160405180910390fd5b60008181526002602052604081206006018054916109788361153f565b9091555050600081815260026020908152604080832060030154600790925282208054919290916109aa908490611558565b90915550506006546000828152600260205260409081902060030154905163a9059cbb60e01b815233600482015260248101919091526001600160a01b039091169063a9059cbb906044016020604051808303816000875af1158015610a14573d6000803e3d6000fd5b505050506040513d601f19601f82011682018060405250810190610a3891906114a7565b610a55576040516312171d8360e31b815260040160405180910390fd5b50565b60058181548110610a6857600080fd5b600091825260209091200154905081565b6000818152600260205260409020600101546001600160a01b03163314610ab35760405163172c86c160e21b815260040160405180910390fd5b600081815260026020526040902060040154610100900460ff1615610aeb57604051631e89512f60e21b815260040160405180910390fd5b6000908152600260205260409020600401805460ff19169055565b6000818152600260205260409020600101546001600160a01b03163314610b405760405163172c86c160e21b815260040160405180910390fd5b600081815260026020526040902060040154610100900460ff1615610b7857604051631e89512f60e21b815260040160405180910390fd5b6000818152600260205260408120600601805491610b958361153f565b919050555050565b6001600160a01b0381166000908152600360205260408120546060918167ffffffffffffffff811115610bd257610bd261144c565b604051908082528060200260200182016040528015610c0b57816020015b610bf86110a7565b815260200190600190039081610bf05790505b50905060005b6001600160a01b038516600090815260036020526040902054811015610da5576001600160a01b03851660009081526003602052604081208054600292919084908110610c6057610c60611462565b6000918252602080832090910154835282810193909352604091820190208151610120810183528154815260018201546001600160a01b0316938101939093526002810180549192840191610cb490611412565b80601f0160208091040260200160405190810160405280929190818152602001828054610ce090611412565b8015610d2d5780601f10610d0257610100808354040283529160200191610d2d565b820191906000526020600020905b815481529060010190602001808311610d1057829003601f168201915b505050918352505060038201546020820152600482015460ff80821615156040840152610100909104161515606082015260058201546080820152600682015460a082015260079091015460c0909101528251839083908110610d9257610d92611462565b6020908102919091010152600101610c11565b509392505050565b60003385858542604051602001610dc895949392919061156b565b60408051601f1981840301815282825280516020918201206101208401835280845233848301528251601f89018390048302810183018452888152909450600093928301918990899081908401838280828437600092018290525093855250505060208083018890526040808401839052606084018390526080840188905260a084018390524260c09094019390935285825260028082529183902084518155908401516001820180546001600160a01b0319166001600160a01b0390921691909117905591830151929350839290820190610ea490826115f1565b506060820151600382810191909155608083015160048301805460a086015161ffff1990911692151561ff00191692909217610100921515830217905560c0840151600584015560e0840151600684015590920151600790910155336000908152602091825260408120805460018101825590825291902001919091555050505050565b7f00000000000000000000000000000000000000000000000000000000000000006001600160a01b0316633bc778e3847f0000000000000000000000000000000000000000000000000000000000000000610fb988604051602001610fa5919060609190911b6bffffffffffffffffffffffff1916815260140190565b604051602081830303815290604052611072565b867f0000000000000000000000000000000000000000000000000000000000000000876040518763ffffffff1660e01b8152600401610ffd969594939291906116b1565b60006040518083038186803b15801561101557600080fd5b505afa158015611029573d6000803e3d6000fd5b505060405162461bcd60e51b815260206004820152600f60248201526e22b7321037b310333ab731ba34b7b760891b604482015260640191506110699050565b60405180910390fd5b600060088260405160200161108791906116e9565b60408051601f198184030181529190528051602090910120901c92915050565b6040518061012001604052806000801916815260200160006001600160a01b0316815260200160608152602001600081526020016000151581526020016000151581526020016000815260200160008152602001600081525090565b60006020828403121561111557600080fd5b5035919050565b60005b8381101561113757818101518382015260200161111f565b50506000910152565b6000815180845261115881602086016020860161111c565b601f01601f19169290920160200192915050565b8981526001600160a01b0389166020820152610120604082018190526000906111978382018b611140565b60608401999099525050941515608086015292151560a085015260c084019190915260e0830152610100909101529392505050565b80356001600160a01b03811681146111e357600080fd5b919050565b6000602082840312156111fa57600080fd5b611203826111cc565b9392505050565b6001600160a01b038616815260a06020820181905260009061122e90830187611140565b941515604083015250911515606083015260809091015292915050565b600060208083018184528085518083526040925060408601915060408160051b87010184880160005b8381101561131557603f19898403018552815180518452878101516001600160a01b03168885015286810151610120888601819052906112b682870182611140565b91505060608083015181870152506080808301516112d78288018215159052565b505060a08281015115159086015260c0808301519086015260e080830151908601526101009182015191909401529386019390860190600101611274565b509098975050505050505050565b6000806040838503121561133657600080fd5b50508035926020909101359150565b6000806000806060858703121561135b57600080fd5b843567ffffffffffffffff8082111561137357600080fd5b818701915087601f83011261138757600080fd5b81358181111561139657600080fd5b8860208285010111156113a857600080fd5b6020928301999098509187013596604001359550909350505050565b6000806000806101608086880312156113dc57600080fd5b6113e5866111cc565b9450602086013593506040860135925086818701111561140457600080fd5b509295919450926060019150565b600181811c9082168061142657607f821691505b60208210810361144657634e487b7160e01b600052602260045260246000fd5b50919050565b634e487b7160e01b600052604160045260246000fd5b634e487b7160e01b600052603260045260246000fd5b634e487b7160e01b600052601160045260246000fd5b808201808211156114a1576114a1611478565b92915050565b6000602082840312156114b957600080fd5b8151801515811461120357600080fd5b60008083546114d781611412565b600182811680156114ef576001811461150457611533565b60ff1984168752821515830287019450611533565b8760005260208060002060005b8581101561152a5781548a820152908401908201611511565b50505082870194505b50929695505050505050565b60006001820161155157611551611478565b5060010190565b818103818111156114a1576114a1611478565b6bffffffffffffffffffffffff198660601b168152838560148301376014930192830191909152603482015260540192915050565b601f8211156115ec576000816000526020600020601f850160051c810160208610156115c95750805b601f850160051c820191505b818110156115e8578281556001016115d5565b5050505b505050565b815167ffffffffffffffff81111561160b5761160b61144c565b61161f816116198454611412565b846115a0565b602080601f831160018114611654576000841561163c5750858301515b600019600386901b1c1916600185901b1785556115e8565b600085815260208120601f198616915b8281101561168357888601518255948401946001909101908401611664565b50858210156116a15787850151600019600388901b60f8161c191681555b5050505050600190811b01905550565b60006101a0820190508782528660208301528560408301528460608301528360808301526101008360a0840137979650505050505050565b600082516116fb81846020870161111c565b919091019291505056fea2646970667358221220063689ff051cf51b842be0380c97a9605cb3df517a6591e73cc774f4d807e6db64736f6c63430008170033",
    "linkReferences": {}
  },
  "methodIdentifiers": {
    "allReliefFunds(uint256)": "89d381db",
    "claimTranche(bytes32)": "58e0492d",
    "createReliefFund(string,uint256,uint256)": "d7eb53da",
    "donateToReliefFund(bytes32,uint256)": "4ecf7fe7",
    "enrollmentMap(address)": "1cebb259",
    "getAllReliefFunds()": "3b24ddd2",
    "getReliefFunds(address)": "d1a04f2f",
    "pauseReliefFund(bytes32)": "33a36efb",
    "reliefFundMap(bytes32)": "17dcac27",
    "resumeeliefFund(bytes32)": "a1a3f51b",
    "startNextTranche(bytes32)": "b28e407b",
    "stopReliefFund(bytes32)": "199efa5f",
    "usdc()": "3e413bee",
    "verifyAndEnroll(address,uint256,uint256,uint256[8])": "dbfc238c"
  },
  "id": 5
}