{
  "abi": [
    {
      "inputs": [
        {
          "internalType": "contract IWorldID",
          "name": "_worldId",
          "type": "address"
        },
        {
          "internalType": "string",
          "name": "_appId",
          "type": "string"
        },
        {
          "internalType": "string",
          "name": "_actionId",
          "type": "string"
        },
        {
          "internalType": "address",
          "name": "_usdc",
          "type": "address"
        }
      ],
      "stateMutability": "nonpayable",
      "type": "constructor"
    },
    {
      "inputs": [],
      "name": "AllTranchesAlreadyClaimed",
      "type": "error"
    },
    {
      "inputs": [],
      "name": "InelgibleForReliefFund",
      "type": "error"
    },
    {
      "inputs": [],
      "name": "InvalidNullifier",
      "type": "error"
    },
    {
      "inputs": [],
      "name": "NotEnrolled",
      "type": "error"
    },
    {
      "inputs": [],
      "name": "ReliefFundAlreadyPaused",
      "type": "error"
    },
    {
      "inputs": [],
      "name": "ReliefFundAlreadyStopped",
      "type": "error"
    },
    {
      "inputs": [],
      "name": "TransferFailed",
      "type": "error"
    },
    {
      "inputs": [],
      "name": "UnauthorizedReliefFundAccess",
      "type": "error"
    },
    {
      "anonymous": false,
      "inputs": [
        {
          "indexed": false,
          "internalType": "address",
          "name": "enrollee",
          "type": "address"
        }
      ],
      "name": "NewEnrollment",
      "type": "event"
    },
    {
      "anonymous": false,
      "inputs": [
        {
          "indexed": false,
          "internalType": "bytes32",
          "name": "kekId",
          "type": "bytes32"
        }
      ],
      "name": "NewReliefFund",
      "type": "event"
    },
    {
      "anonymous": false,
      "inputs": [
        {
          "indexed": false,
          "internalType": "bytes32",
          "name": "kekId",
          "type": "bytes32"
        },
        {
          "indexed": false,
          "internalType": "uint256",
          "name": "trancheIndex",
          "type": "uint256"
        }
      ],
      "name": "NextTrancheStarted",
      "type": "event"
    },
    {
      "anonymous": false,
      "inputs": [
        {
          "indexed": false,
          "internalType": "bytes32",
          "name": "kekId",
          "type": "bytes32"
        }
      ],
      "name": "ReliefFundPaused",
      "type": "event"
    },
    {
      "anonymous": false,
      "inputs": [
        {
          "indexed": false,
          "internalType": "bytes32",
          "name": "kekId",
          "type": "bytes32"
        }
      ],
      "name": "ReliefFundResumed",
      "type": "event"
    },
    {
      "anonymous": false,
      "inputs": [
        {
          "indexed": false,
          "internalType": "bytes32",
          "name": "kekId",
          "type": "bytes32"
        }
      ],
      "name": "ReliefFundStopped",
      "type": "event"
    },
    {
      "anonymous": false,
      "inputs": [
        {
          "indexed": false,
          "internalType": "bytes32",
          "name": "kekId",
          "type": "bytes32"
        },
        {
          "indexed": false,
          "internalType": "uint256",
          "name": "trancheIndex",
          "type": "uint256"
        },
        {
          "indexed": false,
          "internalType": "address",
          "name": "claimer",
          "type": "address"
        }
      ],
      "name": "TrancheClaimed",
      "type": "event"
    },
    {
      "inputs": [
        {
          "internalType": "uint256",
          "name": "",
          "type": "uint256"
        }
      ],
      "name": "allReliefFunds",
      "outputs": [
        {
          "internalType": "bytes32",
          "name": "",
          "type": "bytes32"
        }
      ],
      "stateMutability": "view",
      "type": "function"
    },
    {
      "inputs": [
        {
          "internalType": "bytes32",
          "name": "kekId",
          "type": "bytes32"
        }
      ],
      "name": "claimTranche",
      "outputs": [],
      "stateMutability": "nonpayable",
      "type": "function"
    },
    {
      "inputs": [
        {
          "internalType": "string",
          "name": "alpha2country",
          "type": "string"
        },
        {
          "internalType": "uint256",
          "name": "trancheAmount",
          "type": "uint256"
        },
        {
          "internalType": "uint256",
          "name": "fee",
          "type": "uint256"
        }
      ],
      "name": "createReliefFund",
      "outputs": [],
      "stateMutability": "nonpayable",
      "type": "function"
    },
    {
      "inputs": [
        {
          "internalType": "bytes32",
          "name": "kekId",
          "type": "bytes32"
        },
        {
          "internalType": "uint256",
          "name": "amount",
          "type": "uint256"
        }
      ],
      "name": "donateToReliefFund",
      "outputs": [],
      "stateMutability": "nonpayable",
      "type": "function"
    },
    {
      "inputs": [
        {
          "internalType": "address",
          "name": "",
          "type": "address"
        }
      ],
      "name": "enrollmentMap",
      "outputs": [
        {
          "internalType": "address",
          "name": "wallet",
          "type": "address"
        },
        {
          "internalType": "string",
          "name": "alpha2country",
          "type": "string"
        },
        {
          "internalType": "bool",
          "name": "isOrbVerified",
          "type": "bool"
        },
        {
          "internalType": "bool",
          "name": "isPhoneVerified",
          "type": "bool"
        },
        {
          "internalType": "uint256",
          "name": "createdAt",
          "type": "uint256"
        }
      ],
      "stateMutability": "view",
      "type": "function"
    },
    {
      "inputs": [],
      "name": "getAllReliefFunds",
      "outputs": [
        {
          "components": [
            {
              "internalType": "bytes32",
              "name": "kekId",
              "type": "bytes32"
            },
            {
              "internalType": "address",
              "name": "organizer",
              "type": "address"
            },
            {
              "internalType": "string",
              "name": "alpha2country",
              "type": "string"
            },
            {
              "internalType": "uint256",
              "name": "trancheAmount",
              "type": "uint256"
            },
            {
              "internalType": "bool",
              "name": "isPaused",
              "type": "bool"
            },
            {
              "internalType": "bool",
              "name": "isStopped",
              "type": "bool"
            },
            {
              "internalType": "uint256",
              "name": "fee",
              "type": "uint256"
            },
            {
              "internalType": "uint256",
              "name": "numTranchesReleased",
              "type": "uint256"
            },
            {
              "internalType": "uint256",
              "name": "createdAt",
              "type": "uint256"
            }
          ],
          "internalType": "struct ParaController.ReliefFund[]",
          "name": "",
          "type": "tuple[]"
        }
      ],
      "stateMutability": "view",
      "type": "function"
    },
    {
      "inputs": [
        {
          "internalType": "address",
          "name": "organizer",
          "type": "address"
        }
      ],
      "name": "getReliefFunds",
      "outputs": [
        {
          "components": [
            {
              "internalType": "bytes32",
              "name": "kekId",
              "type": "bytes32"
            },
            {
              "internalType": "address",
              "name": "organizer",
              "type": "address"
            },
            {
              "internalType": "string",
              "name": "alpha2country",
              "type": "string"
            },
            {
              "internalType": "uint256",
              "name": "trancheAmount",
              "type": "uint256"
            },
            {
              "internalType": "bool",
              "name": "isPaused",
              "type": "bool"
            },
            {
              "internalType": "bool",
              "name": "isStopped",
              "type": "bool"
            },
            {
              "internalType": "uint256",
              "name": "fee",
              "type": "uint256"
            },
            {
              "internalType": "uint256",
              "name": "numTranchesReleased",
              "type": "uint256"
            },
            {
              "internalType": "uint256",
              "name": "createdAt",
              "type": "uint256"
            }
          ],
          "internalType": "struct ParaController.ReliefFund[]",
          "name": "",
          "type": "tuple[]"
        }
      ],
      "stateMutability": "view",
      "type": "function"
    },
    {
      "inputs": [
        {
          "internalType": "bytes32",
          "name": "kekId",
          "type": "bytes32"
        }
      ],
      "name": "pauseReliefFund",
      "outputs": [],
      "stateMutability": "nonpayable",
      "type": "function"
    },
    {
      "inputs": [
        {
          "internalType": "bytes32",
          "name": "",
          "type": "bytes32"
        }
      ],
      "name": "reliefFundMap",
      "outputs": [
        {
          "internalType": "bytes32",
          "name": "kekId",
          "type": "bytes32"
        },
        {
          "internalType": "address",
          "name": "organizer",
          "type": "address"
        },
        {
          "internalType": "string",
          "name": "alpha2country",
          "type": "string"
        },
        {
          "internalType": "uint256",
          "name": "trancheAmount",
          "type": "uint256"
        },
        {
          "internalType": "bool",
          "name": "isPaused",
          "type": "bool"
        },
        {
          "internalType": "bool",
          "name": "isStopped",
          "type": "bool"
        },
        {
          "internalType": "uint256",
          "name": "fee",
          "type": "uint256"
        },
        {
          "internalType": "uint256",
          "name": "numTranchesReleased",
          "type": "uint256"
        },
        {
          "internalType": "uint256",
          "name": "createdAt",
          "type": "uint256"
        }
      ],
      "stateMutability": "view",
      "type": "function"
    },
    {
      "inputs": [
        {
          "internalType": "bytes32",
          "name": "kekId",
          "type": "bytes32"
        }
      ],
      "name": "resumeeliefFund",
      "outputs": [],
      "stateMutability": "nonpayable",
      "type": "function"
    },
    {
      "inputs": [
        {
          "internalType": "bytes32",
          "name": "kekId",
          "type": "bytes32"
        }
      ],
      "name": "startNextTranche",
      "outputs": [],
      "stateMutability": "nonpayable",
      "type": "function"
    },
    {
      "inputs": [
        {
          "internalType": "bytes32",
          "name": "kekId",
          "type": "bytes32"
        }
      ],
      "name": "stopReliefFund",
      "outputs": [],
      "stateMutability": "nonpayable",
      "type": "function"
    },
    {
      "inputs": [],
      "name": "usdc",
      "outputs": [
        {
          "internalType": "contract ERC20",
          "name": "",
          "type": "address"
        }
      ],
      "stateMutability": "view",
      "type": "function"
    },
    {
      "inputs": [
        {
          "components": [
            {
              "internalType": "address",
              "name": "wallet",
              "type": "address"
            },
            {
              "internalType": "string",
              "name": "alpha2country",
              "type": "string"
            },
            {
              "internalType": "bool",
              "name": "isOrbVerified",
              "type": "bool"
            },
            {
              "internalType": "bool",
              "name": "isPhoneVerified",
              "type": "bool"
            },
            {
              "internalType": "uint256",
              "name": "createdAt",
              "type": "uint256"
            }
          ],
          "internalType": "struct ParaController.Enrollment",
          "name": "signal",
          "type": "tuple"
        },
        {
          "internalType": "uint256",
          "name": "root",
          "type": "uint256"
        },
        {
          "internalType": "uint256",
          "name": "nullifierHash",
          "type": "uint256"
        },
        {
          "internalType": "uint256[8]",
          "name": "proof",
          "type": "uint256[8]"
        }
      ],
      "name": "verifyAndEnroll",
      "outputs": [],
      "stateMutability": "nonpayable",
      "type": "function"
    }
  ],
  "bytecode": {
    "object": "0x60e0604052600160c0523480156200001657600080fd5b5060405162001d8138038062001d818339810160408190526200003991620001d7565b6001600160a01b0384166080526040516200008d906200007990620000639086906020016200026b565b60408051601f19818403018152919052620000ba565b836040516020016200006392919062000289565b60a052600680546001600160a01b0319166001600160a01b039290921691909117905550620002b1915050565b6000600882604051602001620000d191906200026b565b60408051601f198184030181529190528051602090910120901c92915050565b6001600160a01b03811681146200010757600080fd5b50565b634e487b7160e01b600052604160045260246000fd5b60005b838110156200013d57818101518382015260200162000123565b50506000910152565b600082601f8301126200015857600080fd5b81516001600160401b03808211156200017557620001756200010a565b604051601f8301601f19908116603f01168101908282118183101715620001a057620001a06200010a565b81604052838152866020858801011115620001ba57600080fd5b620001cd84602083016020890162000120565b9695505050505050565b60008060008060808587031215620001ee57600080fd5b8451620001fb81620000f1565b60208601519094506001600160401b03808211156200021957600080fd5b620002278883890162000146565b945060408701519150808211156200023e57600080fd5b506200024d8782880162000146565b92505060608501516200026081620000f1565b939692955090935050565b600082516200027f81846020870162000120565b9190910192915050565b82815260008251620002a381602085016020870162000120565b919091016020019392505050565b60805160a05160c051611aa0620002e160003960006108800152600061090d015260006108580152611aa06000f3fe608060405234801561001057600080fd5b50600436106100ea5760003560e01c806356eb1bd31161008c578063a1a3f51b11610066578063a1a3f51b14610206578063b28e407b14610219578063d1a04f2f1461022c578063d7eb53da1461023f57600080fd5b806356eb1bd3146101bf57806358e0492d146101d257806389d381db146101e557600080fd5b806333a36efb116100c857806333a36efb146101595780633b24ddd21461016c5780633e413bee146101815780634ecf7fe7146101ac57600080fd5b806317dcac27146100ef578063199efa5f146101205780631cebb25914610135575b600080fd5b6101026100fd3660046111e1565b610252565b6040516101179998979695949392919061124a565b60405180910390f35b61013361012e3660046111e1565b610336565b005b6101486101433660046112bf565b6103c8565b6040516101179594939291906112e3565b6101336101673660046111e1565b610491565b610174610521565b6040516101179190611324565b600654610194906001600160a01b031681565b6040516001600160a01b039091168152602001610117565b6101336101ba3660046113fc565b6106ee565b6101336101cd36600461141e565b610818565b6101336101e03660046111e1565b610a40565b6101f86101f33660046111e1565b610c80565b604051908152602001610117565b6101336102143660046111e1565b610ca1565b6101336102273660046111e1565b610d2e565b61017461023a3660046112bf565b610dc5565b61013361024d36600461148c565b610fd5565b600260208190526000918252604090912080546001820154928201805491936001600160a01b031692916102859061150b565b80601f01602080910402602001604051908101604052809291908181526020018280546102b19061150b565b80156102fe5780601f106102d3576101008083540402835291602001916102fe565b820191906000526020600020905b8154815290600101906020018083116102e157829003601f168201915b50505060038401546004850154600586015460068701546007909701549596929560ff80841696506101009093049092169350919089565b6000818152600260205260409020600101546001600160a01b031633146103705760405163172c86c160e21b815260040160405180910390fd5b600081815260026020526040902060040154610100900460ff16156103a857604051631e89512f60e21b815260040160405180910390fd5b6000908152600260205260409020600401805461ff001916610100179055565b6001602081905260009182526040909120805491810180546001600160a01b03909316926103f59061150b565b80601f01602080910402602001604051908101604052809291908181526020018280546104219061150b565b801561046e5780601f106104435761010080835404028352916020019161046e565b820191906000526020600020905b81548152906001019060200180831161045157829003601f168201915b505050506002830154600390930154919260ff8082169361010090920416915085565b6000818152600260205260409020600101546001600160a01b031633146104cb5760405163172c86c160e21b815260040160405180910390fd5b600081815260026020526040902060040154610100900460ff161561050357604051631e89512f60e21b815260040160405180910390fd5b6000908152600260205260409020600401805460ff19166001179055565b60055460609060008167ffffffffffffffff81111561054257610542611545565b60405190808252806020026020018201604052801561057b57816020015b610568611185565b8152602001906001900390816105605790505b50905060005b6005548110156106e75760026000600583815481106105a2576105a261155b565b6000918252602080832090910154835282810193909352604091820190208151610120810183528154815260018201546001600160a01b03169381019390935260028101805491928401916105f69061150b565b80601f01602080910402602001604051908101604052809291908181526020018280546106229061150b565b801561066f5780601f106106445761010080835404028352916020019161066f565b820191906000526020600020905b81548152906001019060200180831161065257829003601f168201915b505050918352505060038201546020820152600482015460ff80821615156040840152610100909104161515606082015260058201546080820152600682015460a082015260079091015460c09091015282518390839081106106d4576106d461155b565b6020908102919091010152600101610581565b5092915050565b600082815260026020526040902060040154610100900460ff161561072657604051631e89512f60e21b815260040160405180910390fd5b60008281526002602052604090206004015460ff16156107595760405163fa824cb760e01b815260040160405180910390fd5b60008281526007602052604081208054839290610777908490611587565b90915550506006546040516323b872dd60e01b8152336004820152306024820152604481018390526001600160a01b03909116906323b872dd906064016020604051808303816000875af11580156107d3573d6000803e3d6000fd5b505050506040513d601f19601f820116820180604052508101906107f791906115ae565b610814576040516312171d8360e31b815260040160405180910390fd5b5050565b6000828152602081905260409020546001600160a01b03161561084e57604051632ec8265960e11b815260040160405180910390fd5b6001600160a01b037f000000000000000000000000000000000000000000000000000000000000000016633bc778e3847f000000000000000000000000000000000000000000000000000000000000000061090a6108af60208a018a6112bf565b6108bc60208b018b6115cb565b6108cc60608d0160408e01611619565b6108dc60808e0160608f01611619565b8d608001356040516020016108f696959493929190611636565b604051602081830303815290604052611150565b867f0000000000000000000000000000000000000000000000000000000000000000876040518763ffffffff1660e01b815260040161094e96959493929190611685565b60006040518083038186803b15801561096657600080fd5b505afa15801561097a573d6000803e3d6000fd5b5061098c9250505060208501856112bf565b600083815260208181526040822080546001600160a01b0319166001600160a01b0394909416939093179092558591600191906109cb908401846112bf565b6001600160a01b0316815260208101919091526040016000206109ee82826117dc565b507f5fc521ce18ffd111062d4289cdebe0690f2d309db8d80e2909522dcf0f93c7239050610a1f60208601866112bf565b6040516001600160a01b03909116815260200160405180910390a150505050565b600081815260026020526040902060040154610100900460ff1615610a7857604051631e89512f60e21b815260040160405180910390fd5b336000908152600160205260409020546001600160a01b0316610aae576040516364a85fc960e11b815260040160405180910390fd5b60026000828152602001908152602001600020600201604051602001610ad491906118b7565b60408051601f19818403018152828252805160209182012033600090815260018084529390209093610b0b939190910191016118b7565b6040516020818303038152906040528051906020012014610b3f57604051630c51341f60e11b815260040160405180910390fd5b600081815260026020908152604080832060060154600483528184203385529092529091205410610b8357604051632eb7669960e01b815260040160405180910390fd5b6000818152600260205260408120600601805491610ba08361192d565b909155505060008181526002602090815260408083206003015460079092528220805491929091610bd2908490611946565b90915550506006546000828152600260205260409081902060030154905163a9059cbb60e01b815233600482015260248101919091526001600160a01b039091169063a9059cbb906044016020604051808303816000875af1158015610c3c573d6000803e3d6000fd5b505050506040513d601f19601f82011682018060405250810190610c6091906115ae565b610c7d576040516312171d8360e31b815260040160405180910390fd5b50565b60058181548110610c9057600080fd5b600091825260209091200154905081565b6000818152600260205260409020600101546001600160a01b03163314610cdb5760405163172c86c160e21b815260040160405180910390fd5b600081815260026020526040902060040154610100900460ff1615610d1357604051631e89512f60e21b815260040160405180910390fd5b6000908152600260205260409020600401805460ff19169055565b6000818152600260205260409020600101546001600160a01b03163314610d685760405163172c86c160e21b815260040160405180910390fd5b600081815260026020526040902060040154610100900460ff1615610da057604051631e89512f60e21b815260040160405180910390fd5b6000818152600260205260408120600601805491610dbd8361192d565b919050555050565b6001600160a01b0381166000908152600360205260408120546060918167ffffffffffffffff811115610dfa57610dfa611545565b604051908082528060200260200182016040528015610e3357816020015b610e20611185565b815260200190600190039081610e185790505b50905060005b6001600160a01b038516600090815260036020526040902054811015610fcd576001600160a01b03851660009081526003602052604081208054600292919084908110610e8857610e8861155b565b6000918252602080832090910154835282810193909352604091820190208151610120810183528154815260018201546001600160a01b0316938101939093526002810180549192840191610edc9061150b565b80601f0160208091040260200160405190810160405280929190818152602001828054610f089061150b565b8015610f555780601f10610f2a57610100808354040283529160200191610f55565b820191906000526020600020905b815481529060010190602001808311610f3857829003601f168201915b505050918352505060038201546020820152600482015460ff80821615156040840152610100909104161515606082015260058201546080820152600682015460a082015260079091015460c0909101528251839083908110610fba57610fba61155b565b6020908102919091010152600101610e39565b509392505050565b60003385858542604051602001610ff0959493929190611959565b60408051601f1981840301815282825280516020918201206101208401835280845233848301528251601f89018390048302810183018452888152909450600093928301918990899081908401838280828437600092018290525093855250505060208083018890526040808401839052606084018390526080840188905260a084018390524260c09094019390935285825260028082529183902084518155908401516001820180546001600160a01b0319166001600160a01b03909216919091179055918301519293508392908201906110cc908261198e565b506060820151600382810191909155608083015160048301805460a086015161ffff1990911692151561ff00191692909217610100921515830217905560c0840151600584015560e0840151600684015590920151600790910155336000908152602091825260408120805460018101825590825291902001919091555050505050565b60006008826040516020016111659190611a4e565b60408051601f198184030181529190528051602090910120901c92915050565b6040518061012001604052806000801916815260200160006001600160a01b0316815260200160608152602001600081526020016000151581526020016000151581526020016000815260200160008152602001600081525090565b6000602082840312156111f357600080fd5b5035919050565b60005b838110156112155781810151838201526020016111fd565b50506000910152565b600081518084526112368160208601602086016111fa565b601f01601f19169290920160200192915050565b8981526001600160a01b0389166020820152610120604082018190526000906112758382018b61121e565b60608401999099525050941515608086015292151560a085015260c084019190915260e0830152610100909101529392505050565b6001600160a01b0381168114610c7d57600080fd5b6000602082840312156112d157600080fd5b81356112dc816112aa565b9392505050565b6001600160a01b038616815260a0602082018190526000906113079083018761121e565b941515604083015250911515606083015260809091015292915050565b600060208083018184528085518083526040925060408601915060408160051b87010184880160005b838110156113ee57603f19898403018552815180518452878101516001600160a01b031688850152868101516101208886018190529061138f8287018261121e565b91505060608083015181870152506080808301516113b08288018215159052565b505060a08281015115159086015260c0808301519086015260e08083015190860152610100918201519190940152938601939086019060010161134d565b509098975050505050505050565b6000806040838503121561140f57600080fd5b50508035926020909101359150565b60008060008061016080868803121561143657600080fd5b853567ffffffffffffffff81111561144d57600080fd5b860160a0818903121561145f57600080fd5b9450602086013593506040860135925080860187101561147e57600080fd5b509295919450926060019150565b600080600080606085870312156114a257600080fd5b843567ffffffffffffffff808211156114ba57600080fd5b818701915087601f8301126114ce57600080fd5b8135818111156114dd57600080fd5b8860208285010111156114ef57600080fd5b6020928301999098509187013596604001359550909350505050565b600181811c9082168061151f57607f821691505b60208210810361153f57634e487b7160e01b600052602260045260246000fd5b50919050565b634e487b7160e01b600052604160045260246000fd5b634e487b7160e01b600052603260045260246000fd5b634e487b7160e01b600052601160045260246000fd5b8082018082111561159a5761159a611571565b92915050565b8015158114610c7d57600080fd5b6000602082840312156115c057600080fd5b81516112dc816115a0565b6000808335601e198436030181126115e257600080fd5b83018035915067ffffffffffffffff8211156115fd57600080fd5b60200191503681900382131561161257600080fd5b9250929050565b60006020828403121561162b57600080fd5b81356112dc816115a0565b6bffffffffffffffffffffffff198760601b16815284866014830137600085820185151560f81b601482015284151560f81b601582015283601682015260368101915050979650505050505050565b60006101a0820190508782528660208301528560408301528460608301528360808301526101008360a0840137979650505050505050565b601f821115611709576000816000526020600020601f850160051c810160208610156116e65750805b601f850160051c820191505b81811015611705578281556001016116f2565b5050505b505050565b67ffffffffffffffff83111561172657611726611545565b61173a83611734835461150b565b836116bd565b6000601f84116001811461176e57600085156117565750838201355b600019600387901b1c1916600186901b1783556117c8565b600083815260209020601f19861690835b8281101561179f578685013582556020948501946001909201910161177f565b50868210156117bc5760001960f88860031b161c19848701351681555b505060018560011b0183555b5050505050565b6000813561159a816115a0565b81356117e7816112aa565b81546001600160a01b0319166001600160a01b0391909116178155602082013536839003601e1901811261181a57600080fd5b8201803567ffffffffffffffff81111561183357600080fd5b60208201915080360382131561184857600080fd5b61185681836001860161170e565b50506002810161187f61186b604085016117cf565b825490151560ff1660ff1991909116178255565b6118a861188e606085016117cf565b82805461ff00191691151560081b61ff0016919091179055565b50608082013560038201555050565b60008083546118c58161150b565b600182811680156118dd57600181146118f257611921565b60ff1984168752821515830287019450611921565b8760005260208060002060005b858110156119185781548a8201529084019082016118ff565b50505082870194505b50929695505050505050565b60006001820161193f5761193f611571565b5060010190565b8181038181111561159a5761159a611571565b6bffffffffffffffffffffffff198660601b168152838560148301376014930192830191909152603482015260540192915050565b815167ffffffffffffffff8111156119a8576119a8611545565b6119bc816119b6845461150b565b846116bd565b602080601f8311600181146119f157600084156119d95750858301515b600019600386901b1c1916600185901b178555611705565b600085815260208120601f198616915b82811015611a2057888601518255948401946001909101908401611a01565b5085821015611a3e5787850151600019600388901b60f8161c191681555b5050505050600190811b01905550565b60008251611a608184602087016111fa565b919091019291505056fea2646970667358221220cf9d2aee04ace76ca122b98080333ab81fde65774d90dfc89749da6aa817f9e264736f6c63430008170033",
    "linkReferences": {}
  },
  "methodIdentifiers": {
    "allReliefFunds(uint256)": "89d381db",
    "claimTranche(bytes32)": "58e0492d",
    "createReliefFund(string,uint256,uint256)": "d7eb53da",
    "donateToReliefFund(bytes32,uint256)": "4ecf7fe7",
    "enrollmentMap(address)": "1cebb259",
    "getAllReliefFunds()": "3b24ddd2",
    "getReliefFunds(address)": "d1a04f2f",
    "pauseReliefFund(bytes32)": "33a36efb",
    "reliefFundMap(bytes32)": "17dcac27",
    "resumeeliefFund(bytes32)": "a1a3f51b",
    "startNextTranche(bytes32)": "b28e407b",
    "stopReliefFund(bytes32)": "199efa5f",
    "usdc()": "3e413bee",
    "verifyAndEnroll((address,string,bool,bool,uint256),uint256,uint256,uint256[8])": "56eb1bd3"
  },
  "id": 5
}