{
  "abi": [
    {
      "inputs": [
        {
          "internalType": "contract IWorldID",
          "name": "_worldId",
          "type": "address"
        },
        {
          "internalType": "string",
          "name": "_appId",
          "type": "string"
        },
        {
          "internalType": "string",
          "name": "_actionId",
          "type": "string"
        },
        {
          "internalType": "address",
          "name": "_usdc",
          "type": "address"
        }
      ],
      "stateMutability": "nonpayable",
      "type": "constructor"
    },
    {
      "inputs": [],
      "name": "AllTranchesAlreadyClaimed",
      "type": "error"
    },
    {
      "inputs": [],
      "name": "InelgibleForReliefFund",
      "type": "error"
    },
    {
      "inputs": [],
      "name": "InvalidNullifier",
      "type": "error"
    },
    {
      "inputs": [],
      "name": "NotEnrolled",
      "type": "error"
    },
    {
      "inputs": [],
      "name": "ReliefFundAlreadyPaused",
      "type": "error"
    },
    {
      "inputs": [],
      "name": "ReliefFundAlreadyStopped",
      "type": "error"
    },
    {
      "inputs": [],
      "name": "TransferFailed",
      "type": "error"
    },
    {
      "inputs": [],
      "name": "UnauthorizedReliefFundAccess",
      "type": "error"
    },
    {
      "anonymous": false,
      "inputs": [
        {
          "indexed": false,
          "internalType": "bytes32",
          "name": "kekId",
          "type": "bytes32"
        },
        {
          "indexed": false,
          "internalType": "uint256",
          "name": "amount",
          "type": "uint256"
        },
        {
          "indexed": false,
          "internalType": "address",
          "name": "donator",
          "type": "address"
        }
      ],
      "name": "NewDonation",
      "type": "event"
    },
    {
      "anonymous": false,
      "inputs": [
        {
          "indexed": false,
          "internalType": "address",
          "name": "enrollee",
          "type": "address"
        },
        {
          "indexed": false,
          "internalType": "string",
          "name": "alpha2country",
          "type": "string"
        }
      ],
      "name": "NewEnrollment",
      "type": "event"
    },
    {
      "anonymous": false,
      "inputs": [
        {
          "indexed": false,
          "internalType": "bytes32",
          "name": "kekId",
          "type": "bytes32"
        },
        {
          "indexed": false,
          "internalType": "string",
          "name": "name",
          "type": "string"
        },
        {
          "indexed": false,
          "internalType": "string",
          "name": "alpha2country",
          "type": "string"
        }
      ],
      "name": "NewReliefFund",
      "type": "event"
    },
    {
      "anonymous": false,
      "inputs": [
        {
          "indexed": false,
          "internalType": "bytes32",
          "name": "kekId",
          "type": "bytes32"
        },
        {
          "indexed": false,
          "internalType": "uint256",
          "name": "trancheIndex",
          "type": "uint256"
        }
      ],
      "name": "NextTrancheStarted",
      "type": "event"
    },
    {
      "anonymous": false,
      "inputs": [
        {
          "indexed": false,
          "internalType": "bytes32",
          "name": "kekId",
          "type": "bytes32"
        }
      ],
      "name": "ReliefFundPaused",
      "type": "event"
    },
    {
      "anonymous": false,
      "inputs": [
        {
          "indexed": false,
          "internalType": "bytes32",
          "name": "kekId",
          "type": "bytes32"
        }
      ],
      "name": "ReliefFundResumed",
      "type": "event"
    },
    {
      "anonymous": false,
      "inputs": [
        {
          "indexed": false,
          "internalType": "bytes32",
          "name": "kekId",
          "type": "bytes32"
        }
      ],
      "name": "ReliefFundStopped",
      "type": "event"
    },
    {
      "anonymous": false,
      "inputs": [
        {
          "indexed": false,
          "internalType": "bytes32",
          "name": "kekId",
          "type": "bytes32"
        },
        {
          "indexed": false,
          "internalType": "uint256",
          "name": "trancheIndex",
          "type": "uint256"
        },
        {
          "indexed": false,
          "internalType": "address",
          "name": "claimer",
          "type": "address"
        }
      ],
      "name": "TrancheClaimed",
      "type": "event"
    },
    {
      "inputs": [
        {
          "internalType": "uint256",
          "name": "",
          "type": "uint256"
        }
      ],
      "name": "allReliefFunds",
      "outputs": [
        {
          "internalType": "bytes32",
          "name": "",
          "type": "bytes32"
        }
      ],
      "stateMutability": "view",
      "type": "function"
    },
    {
      "inputs": [
        {
          "internalType": "bytes32",
          "name": "kekId",
          "type": "bytes32"
        }
      ],
      "name": "claimTranche",
      "outputs": [],
      "stateMutability": "nonpayable",
      "type": "function"
    },
    {
      "inputs": [
        {
          "internalType": "string",
          "name": "alpha2country",
          "type": "string"
        },
        {
          "internalType": "uint256",
          "name": "trancheAmount",
          "type": "uint256"
        },
        {
          "internalType": "uint256",
          "name": "fee",
          "type": "uint256"
        },
        {
          "internalType": "string",
          "name": "name",
          "type": "string"
        }
      ],
      "name": "createReliefFund",
      "outputs": [],
      "stateMutability": "nonpayable",
      "type": "function"
    },
    {
      "inputs": [
        {
          "internalType": "bytes32",
          "name": "kekId",
          "type": "bytes32"
        },
        {
          "internalType": "uint256",
          "name": "amount",
          "type": "uint256"
        }
      ],
      "name": "donateToReliefFund",
      "outputs": [],
      "stateMutability": "nonpayable",
      "type": "function"
    },
    {
      "inputs": [
        {
          "internalType": "address",
          "name": "",
          "type": "address"
        }
      ],
      "name": "enrollmentMap",
      "outputs": [
        {
          "internalType": "address",
          "name": "wallet",
          "type": "address"
        },
        {
          "internalType": "string",
          "name": "alpha2country",
          "type": "string"
        },
        {
          "internalType": "bool",
          "name": "isOrbVerified",
          "type": "bool"
        },
        {
          "internalType": "bool",
          "name": "isPhoneVerified",
          "type": "bool"
        },
        {
          "internalType": "uint256",
          "name": "createdAt",
          "type": "uint256"
        }
      ],
      "stateMutability": "view",
      "type": "function"
    },
    {
      "inputs": [],
      "name": "getAllReliefFunds",
      "outputs": [
        {
          "components": [
            {
              "internalType": "bytes32",
              "name": "kekId",
              "type": "bytes32"
            },
            {
              "internalType": "address",
              "name": "organizer",
              "type": "address"
            },
            {
              "internalType": "string",
              "name": "alpha2country",
              "type": "string"
            },
            {
              "internalType": "uint256",
              "name": "trancheAmount",
              "type": "uint256"
            },
            {
              "internalType": "bool",
              "name": "isPaused",
              "type": "bool"
            },
            {
              "internalType": "bool",
              "name": "isStopped",
              "type": "bool"
            },
            {
              "internalType": "uint256",
              "name": "fee",
              "type": "uint256"
            },
            {
              "internalType": "uint256",
              "name": "numTranchesReleased",
              "type": "uint256"
            },
            {
              "internalType": "uint256",
              "name": "createdAt",
              "type": "uint256"
            },
            {
              "internalType": "string",
              "name": "name",
              "type": "string"
            },
            {
              "internalType": "uint256",
              "name": "totalReceived",
              "type": "uint256"
            },
            {
              "internalType": "uint256",
              "name": "totalDispersed",
              "type": "uint256"
            }
          ],
          "internalType": "struct ParaController.ReliefFund[]",
          "name": "",
          "type": "tuple[]"
        }
      ],
      "stateMutability": "view",
      "type": "function"
    },
    {
      "inputs": [
        {
          "internalType": "address",
          "name": "organizer",
          "type": "address"
        }
      ],
      "name": "getReliefFunds",
      "outputs": [
        {
          "components": [
            {
              "internalType": "bytes32",
              "name": "kekId",
              "type": "bytes32"
            },
            {
              "internalType": "address",
              "name": "organizer",
              "type": "address"
            },
            {
              "internalType": "string",
              "name": "alpha2country",
              "type": "string"
            },
            {
              "internalType": "uint256",
              "name": "trancheAmount",
              "type": "uint256"
            },
            {
              "internalType": "bool",
              "name": "isPaused",
              "type": "bool"
            },
            {
              "internalType": "bool",
              "name": "isStopped",
              "type": "bool"
            },
            {
              "internalType": "uint256",
              "name": "fee",
              "type": "uint256"
            },
            {
              "internalType": "uint256",
              "name": "numTranchesReleased",
              "type": "uint256"
            },
            {
              "internalType": "uint256",
              "name": "createdAt",
              "type": "uint256"
            },
            {
              "internalType": "string",
              "name": "name",
              "type": "string"
            },
            {
              "internalType": "uint256",
              "name": "totalReceived",
              "type": "uint256"
            },
            {
              "internalType": "uint256",
              "name": "totalDispersed",
              "type": "uint256"
            }
          ],
          "internalType": "struct ParaController.ReliefFund[]",
          "name": "",
          "type": "tuple[]"
        }
      ],
      "stateMutability": "view",
      "type": "function"
    },
    {
      "inputs": [
        {
          "internalType": "bytes32",
          "name": "kekId",
          "type": "bytes32"
        }
      ],
      "name": "pauseReliefFund",
      "outputs": [],
      "stateMutability": "nonpayable",
      "type": "function"
    },
    {
      "inputs": [
        {
          "internalType": "bytes32",
          "name": "",
          "type": "bytes32"
        }
      ],
      "name": "reliefFundMap",
      "outputs": [
        {
          "internalType": "bytes32",
          "name": "kekId",
          "type": "bytes32"
        },
        {
          "internalType": "address",
          "name": "organizer",
          "type": "address"
        },
        {
          "internalType": "string",
          "name": "alpha2country",
          "type": "string"
        },
        {
          "internalType": "uint256",
          "name": "trancheAmount",
          "type": "uint256"
        },
        {
          "internalType": "bool",
          "name": "isPaused",
          "type": "bool"
        },
        {
          "internalType": "bool",
          "name": "isStopped",
          "type": "bool"
        },
        {
          "internalType": "uint256",
          "name": "fee",
          "type": "uint256"
        },
        {
          "internalType": "uint256",
          "name": "numTranchesReleased",
          "type": "uint256"
        },
        {
          "internalType": "uint256",
          "name": "createdAt",
          "type": "uint256"
        },
        {
          "internalType": "string",
          "name": "name",
          "type": "string"
        },
        {
          "internalType": "uint256",
          "name": "totalReceived",
          "type": "uint256"
        },
        {
          "internalType": "uint256",
          "name": "totalDispersed",
          "type": "uint256"
        }
      ],
      "stateMutability": "view",
      "type": "function"
    },
    {
      "inputs": [
        {
          "internalType": "bytes32",
          "name": "kekId",
          "type": "bytes32"
        }
      ],
      "name": "resumeReliefFund",
      "outputs": [],
      "stateMutability": "nonpayable",
      "type": "function"
    },
    {
      "inputs": [
        {
          "internalType": "bytes32",
          "name": "kekId",
          "type": "bytes32"
        }
      ],
      "name": "startNextTranche",
      "outputs": [],
      "stateMutability": "nonpayable",
      "type": "function"
    },
    {
      "inputs": [
        {
          "internalType": "bytes32",
          "name": "kekId",
          "type": "bytes32"
        }
      ],
      "name": "stopReliefFund",
      "outputs": [],
      "stateMutability": "nonpayable",
      "type": "function"
    },
    {
      "inputs": [],
      "name": "usdc",
      "outputs": [
        {
          "internalType": "contract ERC20",
          "name": "",
          "type": "address"
        }
      ],
      "stateMutability": "view",
      "type": "function"
    },
    {
      "inputs": [
        {
          "internalType": "address",
          "name": "signal",
          "type": "address"
        },
        {
          "internalType": "string",
          "name": "alpha2country",
          "type": "string"
        },
        {
          "internalType": "uint256",
          "name": "root",
          "type": "uint256"
        },
        {
          "internalType": "uint256",
          "name": "nullifierHash",
          "type": "uint256"
        },
        {
          "internalType": "uint256[8]",
          "name": "proof",
          "type": "uint256[8]"
        }
      ],
      "name": "verifyAndEnroll",
      "outputs": [],
      "stateMutability": "nonpayable",
      "type": "function"
    }
  ],
  "bytecode": {
    "object": "0x60e0604052600160c0523480156200001657600080fd5b5060405162002175380380620021758339810160408190526200003991620001d7565b6001600160a01b0384166080526040516200008d906200007990620000639086906020016200026b565b60408051601f19818403018152919052620000ba565b836040516020016200006392919062000289565b60a052600680546001600160a01b0319166001600160a01b039290921691909117905550620002b1915050565b6000600882604051602001620000d191906200026b565b60408051601f198184030181529190528051602090910120901c92915050565b6001600160a01b03811681146200010757600080fd5b50565b634e487b7160e01b600052604160045260246000fd5b60005b838110156200013d57818101518382015260200162000123565b50506000910152565b600082601f8301126200015857600080fd5b81516001600160401b03808211156200017557620001756200010a565b604051601f8301601f19908116603f01168101908282118183101715620001a057620001a06200010a565b81604052838152866020858801011115620001ba57600080fd5b620001cd84602083016020890162000120565b9695505050505050565b60008060008060808587031215620001ee57600080fd5b8451620001fb81620000f1565b60208601519094506001600160401b03808211156200021957600080fd5b620002278883890162000146565b945060408701519150808211156200023e57600080fd5b506200024d8782880162000146565b92505060608501516200026081620000f1565b939692955090935050565b600082516200027f81846020870162000120565b9190910192915050565b82815260008251620002a381602085016020870162000120565b919091016020019392505050565b60805160a05160c051611e94620002e16000396000610d8a01526000610dec01526000610d5a0152611e946000f3fe608060405234801561001057600080fd5b50600436106100ea5760003560e01c806358e0492d1161008c578063aba7e20d11610066578063aba7e20d14610209578063b28e407b1461021c578063bdf2a0c71461022f578063d1a04f2f1461024257600080fd5b806358e0492d146101c257806389d381db146101d55780638b77cb96146101f657600080fd5b806333a36efb116100c857806333a36efb1461015c5780633b24ddd21461016f5780633e413bee146101845780634ecf7fe7146101af57600080fd5b806317dcac27146100ef578063199efa5f146101235780631cebb25914610138575b600080fd5b6101026100fd366004611668565b610255565b60405161011a9c9b9a999897969594939291906116d1565b60405180910390f35b610136610131366004611668565b6103d7565b005b61014b610146366004611774565b6104a4565b60405161011a959493929190611796565b61013661016a366004611668565b61056d565b61017761062d565b60405161011a91906117d7565b600654610197906001600160a01b031681565b6040516001600160a01b03909116815260200161011a565b6101366101bd3660046118e3565b6108a1565b6101366101d0366004611668565b610a30565b6101e86101e3366004611668565b610d01565b60405190815260200161011a565b610136610204366004611933565b610d22565b610136610217366004611668565b610f59565b61013661022a366004611668565b611016565b61013661023d366004611a64565b6110ad565b610177610250366004611774565b61130b565b600260208190526000918252604090912080546001820154928201805491936001600160a01b0316929161028890611ae7565b80601f01602080910402602001604051908101604052809291908181526020018280546102b490611ae7565b80156103015780601f106102d657610100808354040283529160200191610301565b820191906000526020600020905b8154815290600101906020018083116102e457829003601f168201915b50505050600383015460048401546005850154600686015460078701546008880180549798959760ff80871698506101009096049095169593949293919261034890611ae7565b80601f016020809104026020016040519081016040528092919081815260200182805461037490611ae7565b80156103c15780601f10610396576101008083540402835291602001916103c1565b820191906000526020600020905b8154815290600101906020018083116103a457829003601f168201915b50505050509080600901549080600a015490508c565b6000818152600260205260409020600101546001600160a01b031633146104115760405163172c86c160e21b815260040160405180910390fd5b600081815260026020526040902060040154610100900460ff161561044957604051631e89512f60e21b815260040160405180910390fd5b60008181526002602052604090819020600401805461ff001916610100179055517f5ebd0ee8a3a13b30ad1f4c129ff74ff5e59fb2fdcce8b41afa9fc45bfac42ee6906104999083815260200190565b60405180910390a150565b6001602081905260009182526040909120805491810180546001600160a01b03909316926104d190611ae7565b80601f01602080910402602001604051908101604052809291908181526020018280546104fd90611ae7565b801561054a5780601f1061051f5761010080835404028352916020019161054a565b820191906000526020600020905b81548152906001019060200180831161052d57829003601f168201915b505050506002830154600390930154919260ff8082169361010090920416915085565b6000818152600260205260409020600101546001600160a01b031633146105a75760405163172c86c160e21b815260040160405180910390fd5b600081815260026020526040902060040154610100900460ff16156105df57604051631e89512f60e21b815260040160405180910390fd5b60008181526002602052604090819020600401805460ff19166001179055517fc507d8a965efe55b059fecfd95dc8bd6414465f81a855c97cf9aa5450d103b2f906104999083815260200190565b60055460609060008167ffffffffffffffff81111561064e5761064e611905565b60405190808252806020026020018201604052801561068757816020015b6106746115f7565b81526020019060019003908161066c5790505b50905060005b60055481101561089a5760026000600583815481106106ae576106ae611b21565b6000918252602080832090910154835282810193909352604091820190208151610180810183528154815260018201546001600160a01b031693810193909352600281018054919284019161070290611ae7565b80601f016020809104026020016040519081016040528092919081815260200182805461072e90611ae7565b801561077b5780601f106107505761010080835404028352916020019161077b565b820191906000526020600020905b81548152906001019060200180831161075e57829003601f168201915b505050918352505060038201546020820152600482015460ff80821615156040840152610100909104161515606082015260058201546080820152600682015460a0820152600782015460c082015260088201805460e0909201916107df90611ae7565b80601f016020809104026020016040519081016040528092919081815260200182805461080b90611ae7565b80156108585780601f1061082d57610100808354040283529160200191610858565b820191906000526020600020905b81548152906001019060200180831161083b57829003601f168201915b5050505050815260200160098201548152602001600a8201548152505082828151811061088757610887611b21565b602090810291909101015260010161068d565b5092915050565b600082815260026020526040902060040154610100900460ff16156108d957604051631e89512f60e21b815260040160405180910390fd5b60008281526002602052604090206004015460ff161561090c5760405163fa824cb760e01b815260040160405180910390fd5b6000828152600760205260408120805483929061092a908490611b4d565b909155505060008281526002602052604081206009018054839290610950908490611b4d565b90915550506006546040516323b872dd60e01b8152336004820152306024820152604481018390526001600160a01b03909116906323b872dd906064016020604051808303816000875af11580156109ac573d6000803e3d6000fd5b505050506040513d601f19601f820116820180604052508101906109d09190611b60565b6109ed576040516312171d8360e31b815260040160405180910390fd5b6040805183815260208101839052338183015290517f4be0616ec4583ace01b9374bdf88992f2b15c279934d959474bada6b5d986d319181900360600190a15050565b600081815260026020526040902060040154610100900460ff1615610a6857604051631e89512f60e21b815260040160405180910390fd5b336000908152600160205260409020546001600160a01b0316610a9e576040516364a85fc960e11b815260040160405180910390fd5b60026000828152602001908152602001600020600201604051602001610ac49190611b82565b60408051601f19818403018152828252805160209182012033600090815260018084529390209093610afb93919091019101611b82565b6040516020818303038152906040528051906020012014610b2f57604051630c51341f60e11b815260040160405180910390fd5b60008181526002602090815260408083206006015460048352818420338552909252909120541115610b7457604051632eb7669960e01b815260040160405180910390fd5b60008181526004602081815260408084203380865281845282862083516080810185528881529285528054838601818152848601938452426060860190815260018084018555938a52878a2095519290980290940190815592519083015551600280830180546001600160a01b0319166001600160a01b0390931692909217909155935160039182015585855292909152822090810154600a909101805491929091610c21908490611b4d565b909155505060008181526002602090815260408083206003015460079092528220805491929091610c53908490611bf8565b90915550506006546000828152600260205260409081902060030154905163a9059cbb60e01b815233600482015260248101919091526001600160a01b039091169063a9059cbb906044016020604051808303816000875af1158015610cbd573d6000803e3d6000fd5b505050506040513d601f19601f82011682018060405250810190610ce19190611b60565b610cfe576040516312171d8360e31b815260040160405180910390fd5b50565b60058181548110610d1157600080fd5b600091825260209091200154905081565b6000828152602081905260409020546001600160a01b031615610d5857604051632ec8265960e11b815260040160405180910390fd5b7f00000000000000000000000000000000000000000000000000000000000000006001600160a01b0316633bc778e3847f0000000000000000000000000000000000000000000000000000000000000000610de989604051602001610dd5919060609190911b6bffffffffffffffffffffffff1916815260140190565b6040516020818303038152906040526115c2565b867f0000000000000000000000000000000000000000000000000000000000000000876040518763ffffffff1660e01b8152600401610e2d96959493929190611c0b565b60006040518083038186803b158015610e4557600080fd5b505afa158015610e59573d6000803e3d6000fd5b50505060008381526020818152604080832080546001600160a01b03808c166001600160a01b03199283168117909355835160a0810185528381528086018c8152600182870181905260608301819052426080840152948852958490529390952083518154961695909116949094178455915190935090820190610edd9082611c94565b50604082810151600283018054606086015115156101000261ff00199315159390931661ffff1990911617919091179055608090920151600390910155517f8dcfb0eee2408ca5000289a5a571ab29aa94985ba250a50a5d16715a544e8c1090610f4a9087908790611d54565b60405180910390a15050505050565b6000818152600260205260409020600101546001600160a01b03163314610f935760405163172c86c160e21b815260040160405180910390fd5b600081815260026020526040902060040154610100900460ff1615610fcb57604051631e89512f60e21b815260040160405180910390fd5b60008181526002602052604090819020600401805460ff19169055517f62ff6e841635e415e3c69f855587631f4349f7517b441cfe2406a7934c755ee2906104999083815260200190565b6000818152600260205260409020600101546001600160a01b031633146110505760405163172c86c160e21b815260040160405180910390fd5b600081815260026020526040902060040154610100900460ff161561108857604051631e89512f60e21b815260040160405180910390fd5b60008181526002602052604081206006018054916110a583611d80565b919050555050565b6000338787878686426040516020016110cc9796959493929190611d99565b60408051601f1981840301815282825280516020918201206101808401835280845233848301528251601f8b0183900483028101830184528a8152909450600093928301918b908b9081908401838280828437600092018290525093855250505060208083018a9052604080840183905260608401839052608084018a905260a08401929092524260c08401528151601f880182900482028101820190925286825260e090920191879087908190840183828082843760009201829052509385525050506020808301829052604092830182905285825260028082529183902084518155908401516001820180546001600160a01b0319166001600160a01b03909216919091179055918301519293508392908201906111ec9082611c94565b5060608201516003820155608082015160048201805460a085015161ffff1990911692151561ff00191692909217610100921515830217905560c0830151600583015560e08301516006830155820151600782015561012082015160088201906112569082611c94565b50610140820151600982015561016090910151600a909101556005805460018181019092557f036b6384b5eca791c62761152d0c79bb0604c104a5fb6f4eb0703f3154bb3db0018390553360009081526003602090815260408083208054948501815583529120909101839055517f888f12e91cfad47787b69723a6686f78137c1f8d827a1a992983d11b1d067f67906112f9908490879087908d908d90611e09565b60405180910390a15050505050505050565b6001600160a01b0381166000908152600360205260408120546060918167ffffffffffffffff81111561134057611340611905565b60405190808252806020026020018201604052801561137957816020015b6113666115f7565b81526020019060019003908161135e5790505b50905060005b6001600160a01b0385166000908152600360205260409020548110156115ba576001600160a01b038516600090815260036020526040812080546002929190849081106113ce576113ce611b21565b6000918252602080832090910154835282810193909352604091820190208151610180810183528154815260018201546001600160a01b031693810193909352600281018054919284019161142290611ae7565b80601f016020809104026020016040519081016040528092919081815260200182805461144e90611ae7565b801561149b5780601f106114705761010080835404028352916020019161149b565b820191906000526020600020905b81548152906001019060200180831161147e57829003601f168201915b505050918352505060038201546020820152600482015460ff80821615156040840152610100909104161515606082015260058201546080820152600682015460a0820152600782015460c082015260088201805460e0909201916114ff90611ae7565b80601f016020809104026020016040519081016040528092919081815260200182805461152b90611ae7565b80156115785780601f1061154d57610100808354040283529160200191611578565b820191906000526020600020905b81548152906001019060200180831161155b57829003601f168201915b5050505050815260200160098201548152602001600a820154815250508282815181106115a7576115a7611b21565b602090810291909101015260010161137f565b509392505050565b60006008826040516020016115d79190611e42565b60408051601f198184030181529190528051602090910120901c92915050565b6040518061018001604052806000801916815260200160006001600160a01b0316815260200160608152602001600081526020016000151581526020016000151581526020016000815260200160008152602001600081526020016060815260200160008152602001600081525090565b60006020828403121561167a57600080fd5b5035919050565b60005b8381101561169c578181015183820152602001611684565b50506000910152565b600081518084526116bd816020860160208601611681565b601f01601f19169290920160200192915050565b8c81526001600160a01b038c166020820152610180604082018190526000906116fc8382018e6116a5565b90508b60608401528a1515608084015289151560a08401528860c08401528760e08401528661010084015282810361012084015261173a81876116a5565b610140840195909552505061016001529a9950505050505050505050565b80356001600160a01b038116811461176f57600080fd5b919050565b60006020828403121561178657600080fd5b61178f82611758565b9392505050565b6001600160a01b038616815260a0602082018190526000906117ba908301876116a5565b941515604083015250911515606083015260809091015292915050565b600060208083018184528085518083526040925060408601915060408160051b87010184880160005b838110156118d557603f19898403018552815180518452878101516001600160a01b0316888501528681015161018088860181905290611842828701826116a5565b91505060608083015181870152506080808301516118638288018215159052565b505060a08281015115159086015260c0808301519086015260e08083015190860152610100808301519086015261012080830151868303828801526118a883826116a5565b61014085810151908901526101609485015194909701939093525050509386019390860190600101611800565b509098975050505050505050565b600080604083850312156118f657600080fd5b50508035926020909101359150565b634e487b7160e01b600052604160045260246000fd5b80610100810183101561192d57600080fd5b92915050565b6000806000806000610180868803121561194c57600080fd5b61195586611758565b9450602086013567ffffffffffffffff8082111561197257600080fd5b818801915088601f83011261198657600080fd5b81358181111561199857611998611905565b604051601f8201601f19908116603f011681019083821181831017156119c0576119c0611905565b816040528281528b60208487010111156119d957600080fd5b8260208601602083013760006020848301015280985050505050506040860135925060608601359150611a0f876080880161191b565b90509295509295909350565b60008083601f840112611a2d57600080fd5b50813567ffffffffffffffff811115611a4557600080fd5b602083019150836020828501011115611a5d57600080fd5b9250929050565b60008060008060008060808789031215611a7d57600080fd5b863567ffffffffffffffff80821115611a9557600080fd5b611aa18a838b01611a1b565b909850965060208901359550604089013594506060890135915080821115611ac857600080fd5b50611ad589828a01611a1b565b979a9699509497509295939492505050565b600181811c90821680611afb57607f821691505b602082108103611b1b57634e487b7160e01b600052602260045260246000fd5b50919050565b634e487b7160e01b600052603260045260246000fd5b634e487b7160e01b600052601160045260246000fd5b8082018082111561192d5761192d611b37565b600060208284031215611b7257600080fd5b8151801515811461178f57600080fd5b6000808354611b9081611ae7565b60018281168015611ba85760018114611bbd57611bec565b60ff1984168752821515830287019450611bec565b8760005260208060002060005b85811015611be35781548a820152908401908201611bca565b50505082870194505b50929695505050505050565b8181038181111561192d5761192d611b37565b60006101a0820190508782528660208301528560408301528460608301528360808301526101008360a0840137979650505050505050565b601f821115611c8f576000816000526020600020601f850160051c81016020861015611c6c5750805b601f850160051c820191505b81811015611c8b57828155600101611c78565b5050505b505050565b815167ffffffffffffffff811115611cae57611cae611905565b611cc281611cbc8454611ae7565b84611c43565b602080601f831160018114611cf75760008415611cdf5750858301515b600019600386901b1c1916600185901b178555611c8b565b600085815260208120601f198616915b82811015611d2657888601518255948401946001909101908401611d07565b5085821015611d445787850151600019600388901b60f8161c191681555b5050505050600190811b01905550565b6001600160a01b0383168152604060208201819052600090611d78908301846116a5565b949350505050565b600060018201611d9257611d92611b37565b5060010190565b6bffffffffffffffffffffffff198860601b168152858760148301376000868201866014820152848660348301376034940193840192909252505060540195945050505050565b81835281816020850137506000828201602090810191909152601f909101601f19169091010190565b858152606060208201526000611e23606083018688611de0565b8281036040840152611e36818587611de0565b98975050505050505050565b60008251611e54818460208701611681565b919091019291505056fea264697066735822122052e0600bc12d77fc8de1feecdc4ecc272df55ca5f25d0054d0faf4c97ba63ffa64736f6c63430008170033",
    "linkReferences": {}
  },
  "methodIdentifiers": {
    "allReliefFunds(uint256)": "89d381db",
    "claimTranche(bytes32)": "58e0492d",
    "createReliefFund(string,uint256,uint256,string)": "bdf2a0c7",
    "donateToReliefFund(bytes32,uint256)": "4ecf7fe7",
    "enrollmentMap(address)": "1cebb259",
    "getAllReliefFunds()": "3b24ddd2",
    "getReliefFunds(address)": "d1a04f2f",
    "pauseReliefFund(bytes32)": "33a36efb",
    "reliefFundMap(bytes32)": "17dcac27",
    "resumeReliefFund(bytes32)": "aba7e20d",
    "startNextTranche(bytes32)": "b28e407b",
    "stopReliefFund(bytes32)": "199efa5f",
    "usdc()": "3e413bee",
    "verifyAndEnroll(address,string,uint256,uint256,uint256[8])": "8b77cb96"
  },
  "id": 5
}