{
  "abi": [
    {
      "inputs": [
        {
          "internalType": "contract IWorldID",
          "name": "_worldId",
          "type": "address"
        },
        {
          "internalType": "string",
          "name": "_appId",
          "type": "string"
        },
        {
          "internalType": "string",
          "name": "_actionId",
          "type": "string"
        }
      ],
      "stateMutability": "nonpayable",
      "type": "constructor"
    },
    {
      "inputs": [],
      "name": "InvalidNullifier",
      "type": "error"
    },
    {
      "inputs": [
        {
          "internalType": "address",
          "name": "signal",
          "type": "address"
        },
        {
          "internalType": "uint256",
          "name": "root",
          "type": "uint256"
        },
        {
          "internalType": "uint256",
          "name": "nullifierHash",
          "type": "uint256"
        },
        {
          "internalType": "uint256[8]",
          "name": "proof",
          "type": "uint256[8]"
        }
      ],
      "name": "verifyAndExecute",
      "outputs": [],
      "stateMutability": "nonpayable",
      "type": "function"
    }
  ],
  "bytecode": {
    "object": "0x60e0604052600160c05234801561001557600080fd5b5060405161053a38038061053a83398101604081905261003491610183565b6001600160a01b0383166080526040516100819061006f9061005a908590602001610205565b60408051601f1981840301815291905261008d565b8260405160200161005a929190610221565b60a05250610247915050565b60006008826040516020016100a29190610205565b60408051601f198184030181529190528051602090910120901c92915050565b634e487b7160e01b600052604160045260246000fd5b60005b838110156100f35781810151838201526020016100db565b50506000910152565b600082601f83011261010d57600080fd5b81516001600160401b0380821115610127576101276100c2565b604051601f8301601f19908116603f0116810190828211818310171561014f5761014f6100c2565b8160405283815286602085880101111561016857600080fd5b6101798460208301602089016100d8565b9695505050505050565b60008060006060848603121561019857600080fd5b83516001600160a01b03811681146101af57600080fd5b60208501519093506001600160401b03808211156101cc57600080fd5b6101d8878388016100fc565b935060408601519150808211156101ee57600080fd5b506101fb868287016100fc565b9150509250925092565b600082516102178184602087016100d8565b9190910192915050565b828152600082516102398160208501602087016100d8565b919091016020019392505050565b60805160a05160c0516102c6610274600039600060a70152600061010901526000607701526102c66000f3fe608060405234801561001057600080fd5b506004361061002b5760003560e01c8063e9b7055314610030575b600080fd5b61004361003e3660046101cd565b610045565b005b60008281526020819052604090205460ff161561007557604051632ec8265960e11b815260040160405180910390fd5b7f00000000000000000000000000000000000000000000000000000000000000006001600160a01b0316633bc778e3847f0000000000000000000000000000000000000000000000000000000000000000610106886040516020016100f2919060609190911b6bffffffffffffffffffffffff1916815260140190565b604051602081830303815290604052610198565b867f0000000000000000000000000000000000000000000000000000000000000000876040518763ffffffff1660e01b815260040161014a96959493929190610229565b60006040518083038186803b15801561016257600080fd5b505afa158015610176573d6000803e3d6000fd5b50505060009283525050602081905260409020805460ff191660011790555050565b60006008826040516020016101ad9190610261565b60408051601f198184030181529190528051602090910120901c92915050565b6000806000806101608086880312156101e557600080fd5b85356001600160a01b03811681146101fc57600080fd5b9450602086013593506040860135925080860187101561021b57600080fd5b509295919450926060019150565b60006101a0820190508782528660208301528560408301528460608301528360808301526101008360a0840137979650505050505050565b6000825160005b818110156102825760208186018101518583015201610268565b50600092019182525091905056fea26469706673582212209ce5f4c7d4b420714524a0b11f1c8e8dffa575c1b567aac185afdee90973dffc64736f6c63430008170033",
    "linkReferences": {}
  },
  "methodIdentifiers": {
    "verifyAndExecute(address,uint256,uint256,uint256[8])": "e9b70553"
  },
  "id": 5
}